:020000040000FA
:1000000067280D30042821309300930B0528003415
:100010000F300D2801300D2805309400FF3093007B
:10002000930B1028940B0E280034FF301E286430E8
:100030001E2832301E2814301E280530A100C7307B
:10004000A2000130A300A20B2628A30B2328A10B9A
:100050001F2800348600051035201D200034303E56
:100060008600051435201D200034851400008510FD
:10007000003405103C2805148600851485100034D2
:10008000820748346F346C3461342034453473341F
:1000900074346F34203465347334203475346E34E2
:1000A00061342034503472347534653476346134BC
:1000B00020342034203420342034203420342034A0
:1000C000203420342034203420342034303483163B
:1000D00000308500860083128501860117203830A4
:1000E0002A201D2038302A2038302A200C302A209F
:1000F00001302A201D2000308C000C0840203020C8
:100100009F308D000A200A208D0B82288C0A173020
:080110000C06031D7D287B286D
:00000001FF
